{
  "contractName": "Ex1_Addition",
  "abi": [
    {
      "inputs": [],
      "name": "a",
      "outputs": [
        {
          "internalType": "uint256",
          "name": "",
          "type": "uint256"
        }
      ],
      "stateMutability": "view",
      "type": "function",
      "constant": true
    },
    {
      "inputs": [],
      "name": "b",
      "outputs": [
        {
          "internalType": "uint256",
          "name": "",
          "type": "uint256"
        }
      ],
      "stateMutability": "view",
      "type": "function",
      "constant": true
    },
    {
      "inputs": [],
      "name": "addition1",
      "outputs": [
        {
          "internalType": "uint256",
          "name": "",
          "type": "uint256"
        }
      ],
      "stateMutability": "view",
      "type": "function",
      "constant": true
    },
    {
      "inputs": [
        {
          "internalType": "uint256",
          "name": "x",
          "type": "uint256"
        },
        {
          "internalType": "uint256",
          "name": "y",
          "type": "uint256"
        }
      ],
      "name": "addition2",
      "outputs": [
        {
          "internalType": "uint256",
          "name": "",
          "type": "uint256"
        }
      ],
      "stateMutability": "pure",
      "type": "function",
      "constant": true
    }
  ],
  "bytecode": "0x60806040526005600055600a60015534801561001a57600080fd5b506102528061002a6000396000f3fe608060405234801561001057600080fd5b506004361061004c5760003560e01c80630dbe671f146100515780634d3e46e41461006f5780634df7e3d01461008d578063f1d16438146100ab575b600080fd5b6100596100db565b604051610066919061012d565b60405180910390f35b6100776100e1565b604051610084919061012d565b60405180910390f35b6100956100f8565b6040516100a2919061012d565b60405180910390f35b6100c560048036038101906100c09190610179565b6100fe565b6040516100d2919061012d565b60405180910390f35b60005481565b60006001546000546100f391906101e8565b905090565b60015481565b6000818361010c91906101e8565b905092915050565b6000819050919050565b61012781610114565b82525050565b6000602082019050610142600083018461011e565b92915050565b600080fd5b61015681610114565b811461016157600080fd5b50565b6000813590506101738161014d565b92915050565b600080604083850312156101905761018f610148565b5b600061019e85828601610164565b92505060206101af85828601610164565b9150509250929050565b7f4e487b7100000000000000000000000000000000000000000000000000000000600052601160045260246000fd5b60006101f382610114565b91506101fe83610114565b9250828201905080821115610216576102156101b9565b5b9291505056fea264697066735822122018c4a83cfc2a13eabb24526f768bb59911511c0dc116e98b349228bb1d46e0c664736f6c63430008130033",
  "immutableReferences": {},
  "source": "// SPDX-License-Identifier: MIT\r\npragma solidity ^0.8.0;\r\n\r\n// EX1\r\ncontract Ex1_Addition {\r\n    uint public a = 5;\r\n    uint public b = 10;\r\n\r\n    function addition1() public view returns (uint) {\r\n        return a + b;\r\n    }\r\n\r\n    function addition2(uint x, uint y) public pure returns (uint) {\r\n        return x + y;\r\n    }\r\n}\r\n\r\n// EX2\r\ncontract Ex2_Converter {\r\n    function etherEnWei(uint montantEther) public pure returns (uint) {\r\n        return montantEther * 1 ether;\r\n    }\r\n\r\n    function weiEnEther(uint montantWei) public pure returns (uint) {\r\n        return montantWei / 1 ether;\r\n    }\r\n}\r\n\r\n// EX3\r\ncontract Ex3_GestionChaines {\r\n    string public message;\r\n\r\n    function setMessage(string memory _msg) public {\r\n        message = _msg;\r\n    }\r\n\r\n    function getMessage() public view returns (string memory) {\r\n        return message;\r\n    }\r\n\r\n    function concatener(string memory a, string memory b) public pure returns (string memory) {\r\n        return string.concat(a, b);\r\n    }\r\n\r\n    function concatenerAvec(string memory other) public view returns (string memory) {\r\n        return string.concat(message, other);\r\n    }\r\n\r\n    function longueur(string memory s) public pure returns (uint) {\r\n        return bytes(s).length;\r\n    }\r\n\r\n    function comparer(string memory a, string memory b) public pure returns (bool) {\r\n        return keccak256(bytes(a)) == keccak256(bytes(b));\r\n    }\r\n}\r\n\r\n// EX4\r\ncontract Ex4_Positif {\r\n    function estPositif(int x) public pure returns (bool) {\r\n        return x > 0;\r\n    }\r\n}\r\n\r\n// EX5\r\ncontract Ex5_Parite {\r\n    function estPair(uint x) public pure returns (bool) {\r\n        return x % 2 == 0;\r\n    }\r\n}\r\n\r\n// EX6\r\ncontract Ex6_Tableau {\r\n    uint[] public nombres;\r\n\r\n    constructor() {\r\n        nombres.push(1);\r\n        nombres.push(2);\r\n    }\r\n\r\n    function ajouterNombre(uint x) public {\r\n        nombres.push(x);\r\n    }\r\n\r\n    function getElement(uint index) public view returns (uint) {\r\n        require(index < nombres.length, \"Index invalide\");\r\n        return nombres[index];\r\n    }\r\n\r\n    function afficheTableau() public view returns (uint[] memory) {\r\n        return nombres;\r\n    }\r\n\r\n    function calculerSomme() public view returns (uint somme) {\r\n        for (uint i = 0; i < nombres.length; i++) {\r\n            somme += nombres[i];\r\n        }\r\n    }\r\n}\r\n\r\n// EX7\r\nabstract contract Forme {\r\n    uint public x;\r\n    uint public y;\r\n\r\n    constructor(uint _x, uint _y) {\r\n        x = _x;\r\n        y = _y;\r\n    }\r\n\r\n    function deplacerForme(uint dx, uint dy) public {\r\n        x += dx;\r\n        y += dy;\r\n    }\r\n\r\n    function afficheXY() public view returns (uint, uint) {\r\n        return (x, y);\r\n    }\r\n\r\n    function afficheInfos() public pure virtual returns (string memory) {\r\n        return \"Je suis une forme\";\r\n    }\r\n\r\n    function surface() public view virtual returns (uint);\r\n}\r\n\r\ncontract Ex7_Rectangle is Forme {\r\n    uint public lo;\r\n    uint public la;\r\n\r\n    constructor(uint _x, uint _y, uint _lo, uint _la) Forme(_x, _y) {\r\n        lo = _lo;\r\n        la = _la;\r\n    }\r\n\r\n    function surface() public view override returns (uint) {\r\n        return lo * la;\r\n    }\r\n\r\n    function afficheInfos() public pure override returns (string memory) {\r\n        return \"Je suis Rectangle\";\r\n    }\r\n\r\n    function afficheLoLa() public view returns (uint, uint) {\r\n        return (lo, la);\r\n    }\r\n}\r\n\r\n// EX8\r\ncontract Ex8_Payment {\r\n    address public recipient;\r\n\r\n    constructor(address _recipient) {\r\n        recipient = _recipient;\r\n    }\r\n\r\n    function receivePayment() public payable {\r\n        require(msg.value > 0, \"Envoyer ETH\");\r\n    }\r\n\r\n    function withdraw() public {\r\n        require(msg.sender == recipient, \"Non autorise\");\r\n        payable(recipient).transfer(address(this).balance);\r\n    }\r\n}",
  "sourcePath": "C:\\Users\\A.BELAZIZ\\project-blockchain\\contracts\\TP3.sol",
  "compiler": {
    "name": "solc",
    "version": "0.8.19+commit.7dd6d404.Emscripten.clang"
  },
  "schemaVersion": "3.4.16",
  "updatedAt": "2026-04-26T00:05:13.262Z",
  "networkType": "ethereum",
  "devdoc": {
    "kind": "dev",
    "methods": {},
    "version": 1
  },
  "userdoc": {
    "kind": "user",
    "methods": {},
    "version": 1
  }
}