{
  "contractName": "Ex4_Positif",
  "abi": [
    {
      "inputs": [
        {
          "internalType": "int256",
          "name": "x",
          "type": "int256"
        }
      ],
      "name": "estPositif",
      "outputs": [
        {
          "internalType": "bool",
          "name": "",
          "type": "bool"
        }
      ],
      "stateMutability": "pure",
      "type": "function",
      "constant": true
    }
  ],
  "bytecode": "0x608060405234801561001057600080fd5b50610129806100206000396000f3fe6080604052348015600f57600080fd5b506004361060285760003560e01c8063fa046abd14602d575b600080fd5b60436004803603810190603f91906099565b6057565b604051604e919060da565b60405180910390f35b60008082139050919050565b600080fd5b6000819050919050565b6079816068565b8114608357600080fd5b50565b6000813590506093816072565b92915050565b60006020828403121560ac5760ab6063565b5b600060b8848285016086565b91505092915050565b60008115159050919050565b60d48160c1565b82525050565b600060208201905060ed600083018460cd565b9291505056fea26469706673582212204066121265ce0dbc7a34534fe2f18005936bab73a72b234db8ec6766a2f70d5d64736f6c63430008130033",
  "immutableReferences": {},
  "source": "// SPDX-License-Identifier: MIT\r\npragma solidity ^0.8.0;\r\n\r\n// EX1\r\ncontract Ex1_Addition {\r\n    uint public a = 5;\r\n    uint public b = 10;\r\n\r\n    function addition1() public view returns (uint) {\r\n        return a + b;\r\n    }\r\n\r\n    function addition2(uint x, uint y) public pure returns (uint) {\r\n        return x + y;\r\n    }\r\n}\r\n\r\n// EX2\r\ncontract Ex2_Converter {\r\n    function etherEnWei(uint montantEther) public pure returns (uint) {\r\n        return montantEther * 1 ether;\r\n    }\r\n\r\n    function weiEnEther(uint montantWei) public pure returns (uint) {\r\n        return montantWei / 1 ether;\r\n    }\r\n}\r\n\r\n// EX3\r\ncontract Ex3_GestionChaines {\r\n    string public message;\r\n\r\n    function setMessage(string memory _msg) public {\r\n        message = _msg;\r\n    }\r\n\r\n    function getMessage() public view returns (string memory) {\r\n        return message;\r\n    }\r\n\r\n    function concatener(string memory a, string memory b) public pure returns (string memory) {\r\n        return string.concat(a, b);\r\n    }\r\n\r\n    function concatenerAvec(string memory other) public view returns (string memory) {\r\n        return string.concat(message, other);\r\n    }\r\n\r\n    function longueur(string memory s) public pure returns (uint) {\r\n        return bytes(s).length;\r\n    }\r\n\r\n    function comparer(string memory a, string memory b) public pure returns (bool) {\r\n        return keccak256(bytes(a)) == keccak256(bytes(b));\r\n    }\r\n}\r\n\r\n// EX4\r\ncontract Ex4_Positif {\r\n    function estPositif(int x) public pure returns (bool) {\r\n        return x > 0;\r\n    }\r\n}\r\n\r\n// EX5\r\ncontract Ex5_Parite {\r\n    function estPair(uint x) public pure returns (bool) {\r\n        return x % 2 == 0;\r\n    }\r\n}\r\n\r\n// EX6\r\ncontract Ex6_Tableau {\r\n    uint[] public nombres;\r\n\r\n    constructor() {\r\n        nombres.push(1);\r\n        nombres.push(2);\r\n    }\r\n\r\n    function ajouterNombre(uint x) public {\r\n        nombres.push(x);\r\n    }\r\n\r\n    function getElement(uint index) public view returns (uint) {\r\n        require(index < nombres.length, \"Index invalide\");\r\n        return nombres[index];\r\n    }\r\n\r\n    function afficheTableau() public view returns (uint[] memory) {\r\n        return nombres;\r\n    }\r\n\r\n    function calculerSomme() public view returns (uint somme) {\r\n        for (uint i = 0; i < nombres.length; i++) {\r\n            somme += nombres[i];\r\n        }\r\n    }\r\n}\r\n\r\n// EX7\r\nabstract contract Forme {\r\n    uint public x;\r\n    uint public y;\r\n\r\n    constructor(uint _x, uint _y) {\r\n        x = _x;\r\n        y = _y;\r\n    }\r\n\r\n    function deplacerForme(uint dx, uint dy) public {\r\n        x += dx;\r\n        y += dy;\r\n    }\r\n\r\n    function afficheXY() public view returns (uint, uint) {\r\n        return (x, y);\r\n    }\r\n\r\n    function afficheInfos() public pure virtual returns (string memory) {\r\n        return \"Je suis une forme\";\r\n    }\r\n\r\n    function surface() public view virtual returns (uint);\r\n}\r\n\r\ncontract Ex7_Rectangle is Forme {\r\n    uint public lo;\r\n    uint public la;\r\n\r\n    constructor(uint _x, uint _y, uint _lo, uint _la) Forme(_x, _y) {\r\n        lo = _lo;\r\n        la = _la;\r\n    }\r\n\r\n    function surface() public view override returns (uint) {\r\n        return lo * la;\r\n    }\r\n\r\n    function afficheInfos() public pure override returns (string memory) {\r\n        return \"Je suis Rectangle\";\r\n    }\r\n\r\n    function afficheLoLa() public view returns (uint, uint) {\r\n        return (lo, la);\r\n    }\r\n}\r\n\r\n// EX8\r\ncontract Ex8_Payment {\r\n    address public recipient;\r\n\r\n    constructor(address _recipient) {\r\n        recipient = _recipient;\r\n    }\r\n\r\n    function receivePayment() public payable {\r\n        require(msg.value > 0, \"Envoyer ETH\");\r\n    }\r\n\r\n    function withdraw() public {\r\n        require(msg.sender == recipient, \"Non autorise\");\r\n        payable(recipient).transfer(address(this).balance);\r\n    }\r\n}",
  "sourcePath": "C:\\Users\\A.BELAZIZ\\project-blockchain\\contracts\\TP3.sol",
  "compiler": {
    "name": "solc",
    "version": "0.8.19+commit.7dd6d404.Emscripten.clang"
  },
  "schemaVersion": "3.4.16",
  "updatedAt": "2026-04-26T00:05:13.282Z",
  "networkType": "ethereum",
  "devdoc": {
    "kind": "dev",
    "methods": {},
    "version": 1
  },
  "userdoc": {
    "kind": "user",
    "methods": {},
    "version": 1
  }
}