{
  "contractName": "Ex6_Tableau",
  "abi": [
    {
      "inputs": [],
      "stateMutability": "nonpayable",
      "type": "constructor"
    },
    {
      "inputs": [
        {
          "internalType": "uint256",
          "name": "",
          "type": "uint256"
        }
      ],
      "name": "nombres",
      "outputs": [
        {
          "internalType": "uint256",
          "name": "",
          "type": "uint256"
        }
      ],
      "stateMutability": "view",
      "type": "function",
      "constant": true
    },
    {
      "inputs": [
        {
          "internalType": "uint256",
          "name": "x",
          "type": "uint256"
        }
      ],
      "name": "ajouterNombre",
      "outputs": [],
      "stateMutability": "nonpayable",
      "type": "function"
    },
    {
      "inputs": [
        {
          "internalType": "uint256",
          "name": "index",
          "type": "uint256"
        }
      ],
      "name": "getElement",
      "outputs": [
        {
          "internalType": "uint256",
          "name": "",
          "type": "uint256"
        }
      ],
      "stateMutability": "view",
      "type": "function",
      "constant": true
    },
    {
      "inputs": [],
      "name": "afficheTableau",
      "outputs": [
        {
          "internalType": "uint256[]",
          "name": "",
          "type": "uint256[]"
        }
      ],
      "stateMutability": "view",
      "type": "function",
      "constant": true
    },
    {
      "inputs": [],
      "name": "calculerSomme",
      "outputs": [
        {
          "internalType": "uint256",
          "name": "somme",
          "type": "uint256"
        }
      ],
      "stateMutability": "view",
      "type": "function",
      "constant": true
    }
  ],
  "bytecode": "0x608060405234801561001057600080fd5b50600060019080600181540180825580915050600190039060005260206000200160009091909190915055600060029080600181540180825580915050600190039060005260206000200160009091909190915055610581806100746000396000f3fe608060405234801561001057600080fd5b50600436106100575760003560e01c80631f4440b01461005c5780633a7d22bc1461007a5780637692fb5f146100aa578063bd92c667146100da578063e66df334146100f6575b600080fd5b610064610114565b604051610071919061034a565b60405180910390f35b610094600480360381019061008f919061039d565b61016c565b6040516100a191906103d9565b60405180910390f35b6100c460048036038101906100bf919061039d565b6101da565b6040516100d191906103d9565b60405180910390f35b6100f460048036038101906100ef919061039d565b6101fe565b005b6100fe61022a565b60405161010b91906103d9565b60405180910390f35b6060600080548060200260200160405190810160405280929190818152602001828054801561016257602002820191906000526020600020905b81548152602001906001019080831161014e575b5050505050905090565b6000808054905082106101b4576040517f08c379a00000000000000000000000000000000000000000000000000000000081526004016101ab90610451565b60405180910390fd5b600082815481106101c8576101c7610471565b5b90600052602060002001549050919050565b600081815481106101ea57600080fd5b906000526020600020016000915090505481565b600081908060018154018082558091505060019003906000526020600020016000909190919091505550565b600080600090505b60008054905081101561027e576000818154811061025357610252610471565b5b90600052602060002001548261026991906104cf565b9150808061027690610503565b915050610232565b5090565b600081519050919050565b600082825260208201905092915050565b6000819050602082019050919050565b6000819050919050565b6102c1816102ae565b82525050565b60006102d383836102b8565b60208301905092915050565b6000602082019050919050565b60006102f782610282565b610301818561028d565b935061030c8361029e565b8060005b8381101561033d57815161032488826102c7565b975061032f836102df565b925050600181019050610310565b5085935050505092915050565b6000602082019050818103600083015261036481846102ec565b905092915050565b600080fd5b61037a816102ae565b811461038557600080fd5b50565b60008135905061039781610371565b92915050565b6000602082840312156103b3576103b261036c565b5b60006103c184828501610388565b91505092915050565b6103d3816102ae565b82525050565b60006020820190506103ee60008301846103ca565b92915050565b600082825260208201905092915050565b7f496e64657820696e76616c696465000000000000000000000000000000000000600082015250565b600061043b600e836103f4565b915061044682610405565b602082019050919050565b6000602082019050818103600083015261046a8161042e565b9050919050565b7f4e487b7100000000000000000000000000000000000000000000000000000000600052603260045260246000fd5b7f4e487b7100000000000000000000000000000000000000000000000000000000600052601160045260246000fd5b60006104da826102ae565b91506104e5836102ae565b92508282019050808211156104fd576104fc6104a0565b5b92915050565b600061050e826102ae565b91507fffffffffffffffffffffffffffffffffffffffffffffffffffffffffffffffff82036105405761053f6104a0565b5b60018201905091905056fea264697066735822122074b17dc985ac7525793da05b173e7aa70a5322fc164dd054835ae81c33839bdf64736f6c63430008130033",
  "immutableReferences": {},
  "source": "// SPDX-License-Identifier: MIT\r\npragma solidity ^0.8.0;\r\n\r\n// EX1\r\ncontract Ex1_Addition {\r\n    uint public a = 5;\r\n    uint public b = 10;\r\n\r\n    function addition1() public view returns (uint) {\r\n        return a + b;\r\n    }\r\n\r\n    function addition2(uint x, uint y) public pure returns (uint) {\r\n        return x + y;\r\n    }\r\n}\r\n\r\n// EX2\r\ncontract Ex2_Converter {\r\n    function etherEnWei(uint montantEther) public pure returns (uint) {\r\n        return montantEther * 1 ether;\r\n    }\r\n\r\n    function weiEnEther(uint montantWei) public pure returns (uint) {\r\n        return montantWei / 1 ether;\r\n    }\r\n}\r\n\r\n// EX3\r\ncontract Ex3_GestionChaines {\r\n    string public message;\r\n\r\n    function setMessage(string memory _msg) public {\r\n        message = _msg;\r\n    }\r\n\r\n    function getMessage() public view returns (string memory) {\r\n        return message;\r\n    }\r\n\r\n    function concatener(string memory a, string memory b) public pure returns (string memory) {\r\n        return string.concat(a, b);\r\n    }\r\n\r\n    function concatenerAvec(string memory other) public view returns (string memory) {\r\n        return string.concat(message, other);\r\n    }\r\n\r\n    function longueur(string memory s) public pure returns (uint) {\r\n        return bytes(s).length;\r\n    }\r\n\r\n    function comparer(string memory a, string memory b) public pure returns (bool) {\r\n        return keccak256(bytes(a)) == keccak256(bytes(b));\r\n    }\r\n}\r\n\r\n// EX4\r\ncontract Ex4_Positif {\r\n    function estPositif(int x) public pure returns (bool) {\r\n        return x > 0;\r\n    }\r\n}\r\n\r\n// EX5\r\ncontract Ex5_Parite {\r\n    function estPair(uint x) public pure returns (bool) {\r\n        return x % 2 == 0;\r\n    }\r\n}\r\n\r\n// EX6\r\ncontract Ex6_Tableau {\r\n    uint[] public nombres;\r\n\r\n    constructor() {\r\n        nombres.push(1);\r\n        nombres.push(2);\r\n    }\r\n\r\n    function ajouterNombre(uint x) public {\r\n        nombres.push(x);\r\n    }\r\n\r\n    function getElement(uint index) public view returns (uint) {\r\n        require(index < nombres.length, \"Index invalide\");\r\n        return nombres[index];\r\n    }\r\n\r\n    function afficheTableau() public view returns (uint[] memory) {\r\n        return nombres;\r\n    }\r\n\r\n    function calculerSomme() public view returns (uint somme) {\r\n        for (uint i = 0; i < nombres.length; i++) {\r\n            somme += nombres[i];\r\n        }\r\n    }\r\n}\r\n\r\n// EX7\r\nabstract contract Forme {\r\n    uint public x;\r\n    uint public y;\r\n\r\n    constructor(uint _x, uint _y) {\r\n        x = _x;\r\n        y = _y;\r\n    }\r\n\r\n    function deplacerForme(uint dx, uint dy) public {\r\n        x += dx;\r\n        y += dy;\r\n    }\r\n\r\n    function afficheXY() public view returns (uint, uint) {\r\n        return (x, y);\r\n    }\r\n\r\n    function afficheInfos() public pure virtual returns (string memory) {\r\n        return \"Je suis une forme\";\r\n    }\r\n\r\n    function surface() public view virtual returns (uint);\r\n}\r\n\r\ncontract Ex7_Rectangle is Forme {\r\n    uint public lo;\r\n    uint public la;\r\n\r\n    constructor(uint _x, uint _y, uint _lo, uint _la) Forme(_x, _y) {\r\n        lo = _lo;\r\n        la = _la;\r\n    }\r\n\r\n    function surface() public view override returns (uint) {\r\n        return lo * la;\r\n    }\r\n\r\n    function afficheInfos() public pure override returns (string memory) {\r\n        return \"Je suis Rectangle\";\r\n    }\r\n\r\n    function afficheLoLa() public view returns (uint, uint) {\r\n        return (lo, la);\r\n    }\r\n}\r\n\r\n// EX8\r\ncontract Ex8_Payment {\r\n    address public recipient;\r\n\r\n    constructor(address _recipient) {\r\n        recipient = _recipient;\r\n    }\r\n\r\n    function receivePayment() public payable {\r\n        require(msg.value > 0, \"Envoyer ETH\");\r\n    }\r\n\r\n    function withdraw() public {\r\n        require(msg.sender == recipient, \"Non autorise\");\r\n        payable(recipient).transfer(address(this).balance);\r\n    }\r\n}",
  "sourcePath": "C:\\Users\\A.BELAZIZ\\project-blockchain\\contracts\\TP3.sol",
  "compiler": {
    "name": "solc",
    "version": "0.8.19+commit.7dd6d404.Emscripten.clang"
  },
  "schemaVersion": "3.4.16",
  "updatedAt": "2026-04-26T00:05:13.291Z",
  "networkType": "ethereum",
  "devdoc": {
    "kind": "dev",
    "methods": {},
    "version": 1
  },
  "userdoc": {
    "kind": "user",
    "methods": {},
    "version": 1
  }
}